{
  "contractName": "Exchange",
  "abi": [
    {
      "inputs": [
        {
          "internalType": "address",
          "name": "_feeAccount",
          "type": "address"
        },
        {
          "internalType": "uint256",
          "name": "_feePercent",
          "type": "uint256"
        }
      ],
      "payable": false,
      "stateMutability": "nonpayable",
      "type": "constructor"
    },
    {
      "anonymous": false,
      "inputs": [
        {
          "indexed": false,
          "internalType": "uint256",
          "name": "id",
          "type": "uint256"
        },
        {
          "indexed": false,
          "internalType": "address",
          "name": "user",
          "type": "address"
        },
        {
          "indexed": false,
          "internalType": "address",
          "name": "getToken",
          "type": "address"
        },
        {
          "indexed": false,
          "internalType": "uint256",
          "name": "getAmount",
          "type": "uint256"
        },
        {
          "indexed": false,
          "internalType": "address",
          "name": "sendToken",
          "type": "address"
        },
        {
          "indexed": false,
          "internalType": "uint256",
          "name": "sendAmount",
          "type": "uint256"
        },
        {
          "indexed": false,
          "internalType": "uint256",
          "name": "timestamp",
          "type": "uint256"
        }
      ],
      "name": "Cancel",
      "type": "event"
    },
    {
      "anonymous": false,
      "inputs": [
        {
          "indexed": false,
          "internalType": "address",
          "name": "token",
          "type": "address"
        },
        {
          "indexed": false,
          "internalType": "address",
          "name": "user",
          "type": "address"
        },
        {
          "indexed": false,
          "internalType": "uint256",
          "name": "amount",
          "type": "uint256"
        },
        {
          "indexed": false,
          "internalType": "uint256",
          "name": "balance",
          "type": "uint256"
        }
      ],
      "name": "Deposit",
      "type": "event"
    },
    {
      "anonymous": false,
      "inputs": [
        {
          "indexed": false,
          "internalType": "uint256",
          "name": "id",
          "type": "uint256"
        },
        {
          "indexed": false,
          "internalType": "address",
          "name": "user",
          "type": "address"
        },
        {
          "indexed": false,
          "internalType": "address",
          "name": "getToken",
          "type": "address"
        },
        {
          "indexed": false,
          "internalType": "uint256",
          "name": "getAmount",
          "type": "uint256"
        },
        {
          "indexed": false,
          "internalType": "address",
          "name": "sendToken",
          "type": "address"
        },
        {
          "indexed": false,
          "internalType": "uint256",
          "name": "sendAmount",
          "type": "uint256"
        },
        {
          "indexed": false,
          "internalType": "uint256",
          "name": "timestamp",
          "type": "uint256"
        }
      ],
      "name": "Order",
      "type": "event"
    },
    {
      "anonymous": false,
      "inputs": [
        {
          "indexed": false,
          "internalType": "address",
          "name": "token",
          "type": "address"
        },
        {
          "indexed": false,
          "internalType": "address",
          "name": "user",
          "type": "address"
        },
        {
          "indexed": false,
          "internalType": "uint256",
          "name": "amount",
          "type": "uint256"
        },
        {
          "indexed": false,
          "internalType": "uint256",
          "name": "balance",
          "type": "uint256"
        }
      ],
      "name": "Withdraw",
      "type": "event"
    },
    {
      "payable": false,
      "stateMutability": "nonpayable",
      "type": "fallback"
    },
    {
      "constant": true,
      "inputs": [],
      "name": "feeAccount",
      "outputs": [
        {
          "internalType": "address",
          "name": "",
          "type": "address"
        }
      ],
      "payable": false,
      "stateMutability": "view",
      "type": "function"
    },
    {
      "constant": true,
      "inputs": [],
      "name": "feePercent",
      "outputs": [
        {
          "internalType": "uint256",
          "name": "",
          "type": "uint256"
        }
      ],
      "payable": false,
      "stateMutability": "view",
      "type": "function"
    },
    {
      "constant": true,
      "inputs": [
        {
          "internalType": "uint256",
          "name": "",
          "type": "uint256"
        }
      ],
      "name": "orderCancelled",
      "outputs": [
        {
          "internalType": "bool",
          "name": "",
          "type": "bool"
        }
      ],
      "payable": false,
      "stateMutability": "view",
      "type": "function"
    },
    {
      "constant": true,
      "inputs": [],
      "name": "orderCount",
      "outputs": [
        {
          "internalType": "uint256",
          "name": "",
          "type": "uint256"
        }
      ],
      "payable": false,
      "stateMutability": "view",
      "type": "function"
    },
    {
      "constant": true,
      "inputs": [
        {
          "internalType": "uint256",
          "name": "",
          "type": "uint256"
        }
      ],
      "name": "orders",
      "outputs": [
        {
          "internalType": "uint256",
          "name": "id",
          "type": "uint256"
        },
        {
          "internalType": "address",
          "name": "user",
          "type": "address"
        },
        {
          "internalType": "address",
          "name": "getToken",
          "type": "address"
        },
        {
          "internalType": "uint256",
          "name": "getAmount",
          "type": "uint256"
        },
        {
          "internalType": "address",
          "name": "sendToken",
          "type": "address"
        },
        {
          "internalType": "uint256",
          "name": "sendAmount",
          "type": "uint256"
        },
        {
          "internalType": "uint256",
          "name": "timestamp",
          "type": "uint256"
        }
      ],
      "payable": false,
      "stateMutability": "view",
      "type": "function"
    },
    {
      "constant": true,
      "inputs": [
        {
          "internalType": "address",
          "name": "",
          "type": "address"
        },
        {
          "internalType": "address",
          "name": "",
          "type": "address"
        }
      ],
      "name": "tokens",
      "outputs": [
        {
          "internalType": "uint256",
          "name": "",
          "type": "uint256"
        }
      ],
      "payable": false,
      "stateMutability": "view",
      "type": "function"
    },
    {
      "constant": false,
      "inputs": [],
      "name": "depositEther",
      "outputs": [],
      "payable": true,
      "stateMutability": "payable",
      "type": "function"
    },
    {
      "constant": false,
      "inputs": [
        {
          "internalType": "uint256",
          "name": "_amount",
          "type": "uint256"
        }
      ],
      "name": "withdrawEther",
      "outputs": [],
      "payable": false,
      "stateMutability": "nonpayable",
      "type": "function"
    },
    {
      "constant": false,
      "inputs": [
        {
          "internalType": "address",
          "name": "_token",
          "type": "address"
        },
        {
          "internalType": "uint256",
          "name": "_amount",
          "type": "uint256"
        }
      ],
      "name": "depositToken",
      "outputs": [],
      "payable": false,
      "stateMutability": "nonpayable",
      "type": "function"
    },
    {
      "constant": false,
      "inputs": [
        {
          "internalType": "address",
          "name": "_token",
          "type": "address"
        },
        {
          "internalType": "uint256",
          "name": "_amount",
          "type": "uint256"
        }
      ],
      "name": "withdrawToken",
      "outputs": [],
      "payable": false,
      "stateMutability": "nonpayable",
      "type": "function"
    },
    {
      "constant": true,
      "inputs": [
        {
          "internalType": "address",
          "name": "_token",
          "type": "address"
        },
        {
          "internalType": "address",
          "name": "_user",
          "type": "address"
        }
      ],
      "name": "balanceOf",
      "outputs": [
        {
          "internalType": "uint256",
          "name": "",
          "type": "uint256"
        }
      ],
      "payable": false,
      "stateMutability": "view",
      "type": "function"
    },
    {
      "constant": false,
      "inputs": [
        {
          "internalType": "address",
          "name": "_getToken",
          "type": "address"
        },
        {
          "internalType": "uint256",
          "name": "_getAmount",
          "type": "uint256"
        },
        {
          "internalType": "address",
          "name": "_sendToken",
          "type": "address"
        },
        {
          "internalType": "uint256",
          "name": "_sendAmount",
          "type": "uint256"
        }
      ],
      "name": "makeOrder",
      "outputs": [],
      "payable": false,
      "stateMutability": "nonpayable",
      "type": "function"
    },
    {
      "constant": false,
      "inputs": [
        {
          "internalType": "uint256",
          "name": "_id",
          "type": "uint256"
        }
      ],
      "name": "cancelOrder",
      "outputs": [],
      "payable": false,
      "stateMutability": "nonpayable",
      "type": "function"
    }
  ],
  "bytecode": "0x608060405234801561001057600080fd5b5060405161194a38038061194a8339818101604052604081101561003357600080fd5b810190808051906020019092919080519060200190929190505050816000806101000a81548173ffffffffffffffffffffffffffffffffffffffff021916908373ffffffffffffffffffffffffffffffffffffffff1602179055508060018190555050506118a4806100a66000396000f3fe6080604052600436106100c25760003560e01c80637fd6f15c1161007f5780639e281a98116100595780639e281a9814610366578063a85c38ef146103c1578063e9c18966146104be578063f7888aec14610511576100c2565b80637fd6f15c146102ac57806398ea5fca146102d75780639a5c90aa146102e1576100c2565b80632453ffa8146100d4578063338b5dea146100ff5780633bed33ce1461015a578063508493bc14610195578063514fcac71461021a57806365e17c9d14610255575b3480156100ce57600080fd5b50600080fd5b3480156100e057600080fd5b506100e9610596565b6040518082815260200191505060405180910390f35b34801561010b57600080fd5b506101586004803603604081101561012257600080fd5b81019080803573ffffffffffffffffffffffffffffffffffffffff1690602001909291908035906020019092919050505061059c565b005b34801561016657600080fd5b506101936004803603602081101561017d57600080fd5b810190808035906020019092919050505061090b565b005b3480156101a157600080fd5b50610204600480360360408110156101b857600080fd5b81019080803573ffffffffffffffffffffffffffffffffffffffff169060200190929190803573ffffffffffffffffffffffffffffffffffffffff169060200190929190505050610c11565b6040518082815260200191505060405180910390f35b34801561022657600080fd5b506102536004803603602081101561023d57600080fd5b8101908080359060200190929190505050610c36565b005b34801561026157600080fd5b5061026a610e28565b604051808273ffffffffffffffffffffffffffffffffffffffff1673ffffffffffffffffffffffffffffffffffffffff16815260200191505060405180910390f35b3480156102b857600080fd5b506102c1610e4d565b6040518082815260200191505060405180910390f35b6102df610e53565b005b3480156102ed57600080fd5b506103646004803603608081101561030457600080fd5b81019080803573ffffffffffffffffffffffffffffffffffffffff16906020019092919080359060200190929190803573ffffffffffffffffffffffffffffffffffffffff16906020019092919080359060200190929190505050611088565b005b34801561037257600080fd5b506103bf6004803603604081101561038957600080fd5b81019080803573ffffffffffffffffffffffffffffffffffffffff16906020019092919080359060200190929190505050611323565b005b3480156103cd57600080fd5b506103fa600480360360208110156103e457600080fd5b81019080803590602001909291905050506116e7565b604051808881526020018773ffffffffffffffffffffffffffffffffffffffff1673ffffffffffffffffffffffffffffffffffffffff1681526020018673ffffffffffffffffffffffffffffffffffffffff1673ffffffffffffffffffffffffffffffffffffffff1681526020018581526020018473ffffffffffffffffffffffffffffffffffffffff1673ffffffffffffffffffffffffffffffffffffffff16815260200183815260200182815260200197505050505050505060405180910390f35b3480156104ca57600080fd5b506104f7600480360360208110156104e157600080fd5b8101908080359060200190929190505050611789565b604051808215151515815260200191505060405180910390f35b34801561051d57600080fd5b506105806004803603604081101561053457600080fd5b81019080803573ffffffffffffffffffffffffffffffffffffffff169060200190929190803573ffffffffffffffffffffffffffffffffffffffff1690602001909291905050506117a9565b6040518082815260200191505060405180910390f35b60045481565b600073ffffffffffffffffffffffffffffffffffffffff168273ffffffffffffffffffffffffffffffffffffffff1614156105d657600080fd5b8173ffffffffffffffffffffffffffffffffffffffff166323b872dd3330846040518463ffffffff1660e01b8152600401808473ffffffffffffffffffffffffffffffffffffffff1673ffffffffffffffffffffffffffffffffffffffff1681526020018373ffffffffffffffffffffffffffffffffffffffff1673ffffffffffffffffffffffffffffffffffffffff1681526020018281526020019350505050602060405180830381600087803b15801561069157600080fd5b505af11580156106a5573d6000803e3d6000fd5b505050506040513d60208110156106bb57600080fd5b81019080805190602001909291905050506106d557600080fd5b61076481600260008573ffffffffffffffffffffffffffffffffffffffff1673ffffffffffffffffffffffffffffffffffffffff16815260200190815260200160002060003373ffffffffffffffffffffffffffffffffffffffff1673ffffffffffffffffffffffffffffffffffffffff1681526020019081526020016000205461183090919063ffffffff16565b600260008473ffffffffffffffffffffffffffffffffffffffff1673ffffffffffffffffffffffffffffffffffffffff16815260200190815260200160002060003373ffffffffffffffffffffffffffffffffffffffff1673ffffffffffffffffffffffffffffffffffffffff168152602001908152602001600020819055507fdcbc1c05240f31ff3ad067ef1ee35ce4997762752e3a095284754544f4c709d7823383600260008773ffffffffffffffffffffffffffffffffffffffff1673ffffffffffffffffffffffffffffffffffffffff16815260200190815260200160002060003373ffffffffffffffffffffffffffffffffffffffff1673ffffffffffffffffffffffffffffffffffffffff16815260200190815260200160002054604051808573ffffffffffffffffffffffffffffffffffffffff1673ffffffffffffffffffffffffffffffffffffffff1681526020018473ffffffffffffffffffffffffffffffffffffffff1673ffffffffffffffffffffffffffffffffffffffff16815260200183815260200182815260200194505050505060405180910390a15050565b80600260008073ffffffffffffffffffffffffffffffffffffffff1673ffffffffffffffffffffffffffffffffffffffff16815260200190815260200160002060003373ffffffffffffffffffffffffffffffffffffffff1673ffffffffffffffffffffffffffffffffffffffff16815260200190815260200160002054101561099457600080fd5b610a2381600260008073ffffffffffffffffffffffffffffffffffffffff1673ffffffffffffffffffffffffffffffffffffffff16815260200190815260200160002060003373ffffffffffffffffffffffffffffffffffffffff1673ffffffffffffffffffffffffffffffffffffffff1681526020019081526020016000205461184f90919063ffffffff16565b600260008073ffffffffffffffffffffffffffffffffffffffff1673ffffffffffffffffffffffffffffffffffffffff16815260200190815260200160002060003373ffffffffffffffffffffffffffffffffffffffff1673ffffffffffffffffffffffffffffffffffffffff168152602001908152602001600020819055503373ffffffffffffffffffffffffffffffffffffffff166108fc829081150290604051600060405180830381858888f19350505050158015610ae9573d6000803e3d6000fd5b507ff341246adaac6f497bc2a656f546ab9e182111d630394f0c57c710a59a2cb56760003383600260008073ffffffffffffffffffffffffffffffffffffffff1673ffffffffffffffffffffffffffffffffffffffff16815260200190815260200160002060003373ffffffffffffffffffffffffffffffffffffffff1673ffffffffffffffffffffffffffffffffffffffff16815260200190815260200160002054604051808573ffffffffffffffffffffffffffffffffffffffff1673ffffffffffffffffffffffffffffffffffffffff1681526020018473ffffffffffffffffffffffffffffffffffffffff1673ffffffffffffffffffffffffffffffffffffffff16815260200183815260200182815260200194505050505060405180910390a150565b6002602052816000526040600020602052806000526040600020600091509150505481565b60006003600083815260200190815260200160002090503373ffffffffffffffffffffffffffffffffffffffff168160010160009054906101000a900473ffffffffffffffffffffffffffffffffffffffff1673ffffffffffffffffffffffffffffffffffffffff1614610ca957600080fd5b81816000015414610cb957600080fd5b60016005600084815260200190815260200160002060006101000a81548160ff0219169083151502179055507f77de1da0be5f2d3b110d05c6694e5c4ff2d9da7cd23d84353ecf78c7b5acec618160000154338360020160009054906101000a900473ffffffffffffffffffffffffffffffffffffffff1684600301548560040160009054906101000a900473ffffffffffffffffffffffffffffffffffffffff16866005015442604051808881526020018773ffffffffffffffffffffffffffffffffffffffff1673ffffffffffffffffffffffffffffffffffffffff1681526020018673ffffffffffffffffffffffffffffffffffffffff1673ffffffffffffffffffffffffffffffffffffffff1681526020018581526020018473ffffffffffffffffffffffffffffffffffffffff1673ffffffffffffffffffffffffffffffffffffffff16815260200183815260200182815260200197505050505050505060405180910390a15050565b6000809054906101000a900473ffffffffffffffffffffffffffffffffffffffff1681565b60015481565b610ee234600260008073ffffffffffffffffffffffffffffffffffffffff1673ffffffffffffffffffffffffffffffffffffffff16815260200190815260200160002060003373ffffffffffffffffffffffffffffffffffffffff1673ffffffffffffffffffffffffffffffffffffffff1681526020019081526020016000205461183090919063ffffffff16565b600260008073ffffffffffffffffffffffffffffffffffffffff1673ffffffffffffffffffffffffffffffffffffffff16815260200190815260200160002060003373ffffffffffffffffffffffffffffffffffffffff1673ffffffffffffffffffffffffffffffffffffffff168152602001908152602001600020819055507fdcbc1c05240f31ff3ad067ef1ee35ce4997762752e3a095284754544f4c709d760003334600260008073ffffffffffffffffffffffffffffffffffffffff1673ffffffffffffffffffffffffffffffffffffffff16815260200190815260200160002060003373ffffffffffffffffffffffffffffffffffffffff1673ffffffffffffffffffffffffffffffffffffffff16815260200190815260200160002054604051808573ffffffffffffffffffffffffffffffffffffffff1673ffffffffffffffffffffffffffffffffffffffff1681526020018473ffffffffffffffffffffffffffffffffffffffff1673ffffffffffffffffffffffffffffffffffffffff16815260200183815260200182815260200194505050505060405180910390a1565b61109e600160045461183090919063ffffffff16565b6004819055506040518060e0016040528060045481526020013373ffffffffffffffffffffffffffffffffffffffff1681526020018573ffffffffffffffffffffffffffffffffffffffff1681526020018481526020018373ffffffffffffffffffffffffffffffffffffffff168152602001828152602001428152506003600060045481526020019081526020016000206000820151816000015560208201518160010160006101000a81548173ffffffffffffffffffffffffffffffffffffffff021916908373ffffffffffffffffffffffffffffffffffffffff16021790555060408201518160020160006101000a81548173ffffffffffffffffffffffffffffffffffffffff021916908373ffffffffffffffffffffffffffffffffffffffff1602179055506060820151816003015560808201518160040160006101000a81548173ffffffffffffffffffffffffffffffffffffffff021916908373ffffffffffffffffffffffffffffffffffffffff16021790555060a0820151816005015560c082015181600601559050507f9d33853d43e3607b4cc01fdc78338ff2dca6fef7db9232dae6d3eb55fbc3b109600454338686868642604051808881526020018773ffffffffffffffffffffffffffffffffffffffff1673ffffffffffffffffffffffffffffffffffffffff1681526020018673ffffffffffffffffffffffffffffffffffffffff1673ffffffffffffffffffffffffffffffffffffffff1681526020018581526020018473ffffffffffffffffffffffffffffffffffffffff1673ffffffffffffffffffffffffffffffffffffffff16815260200183815260200182815260200197505050505050505060405180910390a150505050565b600073ffffffffffffffffffffffffffffffffffffffff168273ffffffffffffffffffffffffffffffffffffffff16141561135d57600080fd5b80600260008473ffffffffffffffffffffffffffffffffffffffff1673ffffffffffffffffffffffffffffffffffffffff16815260200190815260200160002060003373ffffffffffffffffffffffffffffffffffffffff1673ffffffffffffffffffffffffffffffffffffffff1681526020019081526020016000205410156113e657600080fd5b61147581600260008573ffffffffffffffffffffffffffffffffffffffff1673ffffffffffffffffffffffffffffffffffffffff16815260200190815260200160002060003373ffffffffffffffffffffffffffffffffffffffff1673ffffffffffffffffffffffffffffffffffffffff1681526020019081526020016000205461184f90919063ffffffff16565b600260008473ffffffffffffffffffffffffffffffffffffffff1673ffffffffffffffffffffffffffffffffffffffff16815260200190815260200160002060003373ffffffffffffffffffffffffffffffffffffffff1673ffffffffffffffffffffffffffffffffffffffff168152602001908152602001600020819055508173ffffffffffffffffffffffffffffffffffffffff1663a9059cbb33836040518363ffffffff1660e01b8152600401808373ffffffffffffffffffffffffffffffffffffffff1673ffffffffffffffffffffffffffffffffffffffff16815260200182815260200192505050602060405180830381600087803b15801561157c57600080fd5b505af1158015611590573d6000803e3d6000fd5b505050506040513d60208110156115a657600080fd5b81019080805190602001909291905050506115c057600080fd5b7ff341246adaac6f497bc2a656f546ab9e182111d630394f0c57c710a59a2cb567823383600260008773ffffffffffffffffffffffffffffffffffffffff1673ffffffffffffffffffffffffffffffffffffffff16815260200190815260200160002060003373ffffffffffffffffffffffffffffffffffffffff1673ffffffffffffffffffffffffffffffffffffffff16815260200190815260200160002054604051808573ffffffffffffffffffffffffffffffffffffffff1673ffffffffffffffffffffffffffffffffffffffff1681526020018473ffffffffffffffffffffffffffffffffffffffff1673ffffffffffffffffffffffffffffffffffffffff16815260200183815260200182815260200194505050505060405180910390a15050565b60036020528060005260406000206000915090508060000154908060010160009054906101000a900473ffffffffffffffffffffffffffffffffffffffff16908060020160009054906101000a900473ffffffffffffffffffffffffffffffffffffffff16908060030154908060040160009054906101000a900473ffffffffffffffffffffffffffffffffffffffff16908060050154908060060154905087565b60056020528060005260406000206000915054906101000a900460ff1681565b6000600260008473ffffffffffffffffffffffffffffffffffffffff1673ffffffffffffffffffffffffffffffffffffffff16815260200190815260200160002060008373ffffffffffffffffffffffffffffffffffffffff1673ffffffffffffffffffffffffffffffffffffffff16815260200190815260200160002054905092915050565b60008082840190508381101561184557600080fd5b8091505092915050565b60008282111561185e57600080fd5b60008284039050809150509291505056fea265627a7a72315820cb889c621921812f1db1d79e46866d806becd127f0d1bcdc007cd116392a301264736f6c63430005100032",
  "source": "// SPDX-License-Identifier: MIT\npragma solidity ^0.5.0;\n\nimport \"openzeppelin-solidity/contracts/math/SafeMath.sol\";\nimport \"./Token.sol\";\n\n// Creating an exchange that can Deposit & withdraw funds\n// Manage orders by making or canceling orders\n// handle trades - charge fees\n \n// To Do:\n// [x] Set the account fee\n// [x] Deposit ether\n// [x] Withdraw ether\n// [x] Deposit tokens\n// [x] Withdraw tokens\n// [x] Check Balances\n// [x] Make order\n// [ ] Cancel order\n// [ ] Fill order\n// [ ] Charge fees\n\ncontract Exchange {\n    using SafeMath for uint256;\n\n    // Variables\n    address public feeAccount;\n    uint256 public feePercent; // the fee percentage\n    address constant ETHER = address(0); // store Ether in tokens mapping with blank address\n    mapping(address => mapping(address => uint256)) public tokens;\n    mapping(uint256 => _Order) public orders; // Store the order on the blockchain\n    uint256 public orderCount; // keep track of orders as counter cache\n    mapping(uint256 => bool) public orderCancelled;\n\n    // Events\n    event Deposit(address token, address user, uint256 amount, uint256 balance);\n    event Withdraw(address token, address user, uint256 amount, uint256 balance);\n    event Order(uint256 id, address user, address getToken, uint256 getAmount, address sendToken, uint256 sendAmount, uint256 timestamp);\n    event Cancel(uint256 id, address user, address getToken, uint256 getAmount, address sendToken, uint256 sendAmount, uint256 timestamp);\n\n    // Structs - Model the order\n    struct _Order {\n        uint256 id;\n        address user;\n        address getToken;\n        uint256 getAmount;\n        address sendToken;\n        uint256 sendAmount;\n        uint256 timestamp;\n    }\n    \n    // Add the order to Storage\n\n    constructor (address _feeAccount, uint256 _feePercent) public {\n        feeAccount = _feeAccount;\n        feePercent = _feePercent;\n    }\n\n    // Fallback: reverts if Ether is sent to this smart contract by mistake\n    function() external {\n        revert();\n    }\n\n    function depositEther() payable public {\n        tokens[ETHER][msg.sender] = tokens[ETHER][msg.sender].add(msg.value);\n        emit Deposit(ETHER, msg.sender, msg.value, tokens[ETHER][msg.sender]);\n    }\n\n    function withdrawEther(uint256 _amount) public {\n        require(tokens[ETHER][msg.sender] >= _amount);\n        tokens[ETHER][msg.sender] = tokens[ETHER][msg.sender].sub(_amount);\n        msg.sender.transfer(_amount);\n        emit Withdraw(ETHER, msg.sender, _amount, tokens[ETHER][msg.sender]);\n    }\n\n    function depositToken(address _token, uint256 _amount) public {\n        require(_token != ETHER);\n        require(Token(_token).transferFrom(msg.sender, address(this), _amount));\n        tokens[_token][msg.sender] = tokens[_token][msg.sender].add(_amount);\n        emit Deposit(_token, msg.sender, _amount, tokens[_token][msg.sender]);\n    }\n\n    function withdrawToken(address _token, uint256 _amount) public {\n        require(_token != ETHER);\n        require(tokens[_token][msg.sender] >= _amount);\n        tokens[_token][msg.sender] = tokens[_token][msg.sender].sub(_amount);\n        require(Token(_token).transfer(msg.sender, _amount));\n        emit Withdraw(_token, msg.sender, _amount, tokens[_token][msg.sender]);\n    }\n\n    function balanceOf(address _token, address _user) public view returns (uint256) {\n        return tokens[_token][_user];\n    }\n\n    function makeOrder(address _getToken, uint256 _getAmount, address _sendToken, uint256 _sendAmount) public {\n        orderCount = orderCount.add(1);\n        orders[orderCount] = _Order(orderCount, msg.sender, _getToken, _getAmount, _sendToken, _sendAmount, now);\n        emit Order(orderCount, msg.sender, _getToken, _getAmount, _sendToken, _sendAmount, now);\n    }\n\n    function cancelOrder(uint256 _id) public {\n        _Order storage _order = orders[_id];\n        require(address(_order.user) == msg.sender);\n        require(_order.id == _id); // The order must exist\n        orderCancelled[_id] = true;\n        emit Cancel(_order.id, msg.sender, _order.getToken, _order.getAmount, _order.sendToken, _order.sendAmount, now);\n    }\n}\n\n\n",
  "sourcePath": "/Users/indy/blockchain/projects/solidity/BlockchainDevBootcamp/blockchain-developer-bootcamp/src/contracts/Exchange.sol",
  "compiler": {
    "name": "solc",
    "version": "0.5.16+commit.9c3226ce.Emscripten.clang"
  },
  "schemaVersion": "3.2.3",
  "updatedAt": "2022-04-17T20:14:25.939Z",
  "devdoc": {
    "methods": {}
  },
  "userdoc": {
    "methods": {}
  }
}